{
  "_format": "hh-sol-artifact-1",
  "contractName": "ScholarshipPool",
  "sourceName": "contracts/ScholarshipPool.sol",
  "abi": [
    {
      "inputs": [],
      "stateMutability": "payable",
      "type": "constructor"
    },
    {
      "anonymous": false,
      "inputs": [
        {
          "indexed": true,
          "internalType": "uint256",
          "name": "poolId",
          "type": "uint256"
        },
        {
          "indexed": false,
          "internalType": "address",
          "name": "applicant",
          "type": "address"
        }
      ],
      "name": "Applied",
      "type": "event"
    },
    {
      "anonymous": false,
      "inputs": [
        {
          "indexed": true,
          "internalType": "uint256",
          "name": "poolId",
          "type": "uint256"
        },
        {
          "indexed": false,
          "internalType": "address",
          "name": "recipient",
          "type": "address"
        },
        {
          "indexed": false,
          "internalType": "uint256",
          "name": "amount",
          "type": "uint256"
        }
      ],
      "name": "Disbursed",
      "type": "event"
    },
    {
      "anonymous": false,
      "inputs": [
        {
          "indexed": true,
          "internalType": "uint256",
          "name": "poolId",
          "type": "uint256"
        },
        {
          "indexed": false,
          "internalType": "string",
          "name": "name",
          "type": "string"
        },
        {
          "indexed": false,
          "internalType": "uint256",
          "name": "totalAmount",
          "type": "uint256"
        }
      ],
      "name": "PoolCreated",
      "type": "event"
    },
    {
      "anonymous": false,
      "inputs": [
        {
          "indexed": true,
          "internalType": "uint256",
          "name": "poolId",
          "type": "uint256"
        },
        {
          "indexed": false,
          "internalType": "address",
          "name": "voter",
          "type": "address"
        },
        {
          "indexed": false,
          "internalType": "bool",
          "name": "support",
          "type": "bool"
        }
      ],
      "name": "Voted",
      "type": "event"
    },
    {
      "inputs": [
        {
          "internalType": "uint256",
          "name": "poolId",
          "type": "uint256"
        }
      ],
      "name": "applyForScholarship",
      "outputs": [],
      "stateMutability": "nonpayable",
      "type": "function"
    },
    {
      "inputs": [
        {
          "internalType": "string",
          "name": "name",
          "type": "string"
        },
        {
          "internalType": "string",
          "name": "desc",
          "type": "string"
        }
      ],
      "name": "createPool",
      "outputs": [],
      "stateMutability": "payable",
      "type": "function"
    },
    {
      "inputs": [
        {
          "internalType": "uint256",
          "name": "poolId",
          "type": "uint256"
        }
      ],
      "name": "disburse",
      "outputs": [],
      "stateMutability": "nonpayable",
      "type": "function"
    },
    {
      "inputs": [],
      "name": "poolCount",
      "outputs": [
        {
          "internalType": "uint256",
          "name": "",
          "type": "uint256"
        }
      ],
      "stateMutability": "view",
      "type": "function"
    },
    {
      "inputs": [
        {
          "internalType": "uint256",
          "name": "poolId",
          "type": "uint256"
        },
        {
          "internalType": "bool",
          "name": "support",
          "type": "bool"
        }
      ],
      "name": "vote",
      "outputs": [],
      "stateMutability": "nonpayable",
      "type": "function"
    }
  ],
  "bytecode": "0x608060405260003411610047576040517f08c379a000000000000000000000000000000000000000000000000000000000815260040161003e90610163565b60405180910390fd5b6000806000600154815260200190815260200160002090506040518060200160405280600081525081600001908161007f91906103d3565b50604051806020016040528060008152508160010190816100a091906103d3565b50348160020181905550600160008154809291906100bd906104d4565b919050555060007f3040bbc5c012df6c85e9f1cc10202ceda09051bc16d18aa369bf9ada2ba7716f82600001346040516100f89291906105af565b60405180910390a2506105df565b600082825260208201905092915050565b7f4d7573742066756e64207363686f6c61727368697020706f6f6c000000000000600082015250565b600061014d601a83610106565b915061015882610117565b602082019050919050565b6000602082019050818103600083015261017c81610140565b9050919050565b600081519050919050565b7f4e487b7100000000000000000000000000000000000000000000000000000000600052604160045260246000fd5b7f4e487b7100000000000000000000000000000000000000000000000000000000600052602260045260246000fd5b6000600282049050600182168061020457607f821691505b602082108103610217576102166101bd565b5b50919050565b60008190508160005260206000209050919050565b60006020601f8301049050919050565b600082821b905092915050565b60006008830261027f7fffffffffffffffffffffffffffffffffffffffffffffffffffffffffffffffff82610242565b6102898683610242565b95508019841693508086168417925050509392505050565b6000819050919050565b6000819050919050565b60006102d06102cb6102c6846102a1565b6102ab565b6102a1565b9050919050565b6000819050919050565b6102ea836102b5565b6102fe6102f6826102d7565b84845461024f565b825550505050565b600090565b610313610306565b61031e8184846102e1565b505050565b5b818110156103425761033760008261030b565b600181019050610324565b5050565b601f821115610387576103588161021d565b61036184610232565b81016020851015610370578190505b61038461037c85610232565b830182610323565b50505b505050565b600082821c905092915050565b60006103aa6000198460080261038c565b1980831691505092915050565b60006103c38383610399565b9150826002028217905092915050565b6103dc82610183565b67ffffffffffffffff8111156103f5576103f461018e565b5b6103ff82546101ec565b61040a828285610346565b600060209050601f83116001811461043d576000841561042b578287015190505b61043585826103b7565b86555061049d565b601f19841661044b8661021d565b60005b828110156104735784890151825560018201915060208501945060208101905061044e565b86831015610490578489015161048c601f891682610399565b8355505b6001600288020188555050505b505050505050565b7f4e487b7100000000000000000000000000000000000000000000000000000000600052601160045260246000fd5b60006104df826102a1565b91507fffffffffffffffffffffffffffffffffffffffffffffffffffffffffffffffff8203610511576105106104a5565b5b600182019050919050565b60008154610529816101ec565b6105338186610106565b9450600182166000811461054e576001811461056457610597565b60ff198316865281151560200286019350610597565b61056d8561021d565b60005b8381101561058f57815481890152600182019150602081019050610570565b808801955050505b50505092915050565b6105a9816102a1565b82525050565b600060408201905081810360008301526105c9818561051c565b90506105d860208301846105a0565b9392505050565b611005806105ee6000396000f3fe60806040526004361061004a5760003560e01c80635ea81a321461004f578063910451fa1461006b578063bd77ac2c14610094578063c9d27afe146100bd578063f525cb68146100e6575b600080fd5b610069600480360381019061006491906106bc565b610111565b005b34801561007757600080fd5b50610092600480360381019061008d9190610773565b6101fa565b005b3480156100a057600080fd5b506100bb60048036038101906100b69190610773565b61034f565b005b3480156100c957600080fd5b506100e460048036038101906100df91906107d8565b61045a565b005b3480156100f257600080fd5b506100fb610647565b6040516101089190610827565b60405180910390f35b60003411610154576040517f08c379a000000000000000000000000000000000000000000000000000000000815260040161014b9061089f565b60405180910390fd5b600080600060015481526020019081526020016000209050848482600001918261017f929190610b05565b508282826001019182610193929190610b05565b503481600201819055506001547f3040bbc5c012df6c85e9f1cc10202ceda09051bc16d18aa369bf9ada2ba7716f8686346040516101d393929190610c22565b60405180910390a2600160008154809291906101ee90610c83565b91905055505050505050565b600080600083815260200190815260200160002090508060050160003373ffffffffffffffffffffffffffffffffffffffff1673ffffffffffffffffffffffffffffffffffffffff16815260200190815260200160002060009054906101000a900460ff161561029f576040517f08c379a000000000000000000000000000000000000000000000000000000000815260040161029690610d17565b60405180910390fd5b60018160050160003373ffffffffffffffffffffffffffffffffffffffff1673ffffffffffffffffffffffffffffffffffffffff16815260200190815260200160002060006101000a81548160ff02191690831515021790555080600301600081548092919061030e90610c83565b9190505550817f8e536842b0bedb99bbe3d9b2f4d7cd3c1d89955698940f266371b4d4f5caa257336040516103439190610d78565b60405180910390a25050565b6000806000838152602001908152602001600020905080600301546002826004015461037b9190610d93565b116103bb576040517f08c379a00000000000000000000000000000000000000000000000000000000081526004016103b290610e21565b60405180910390fd5b6000339050600082600201549050600083600201819055508173ffffffffffffffffffffffffffffffffffffffff166108fc829081150290604051600060405180830381858888f19350505050158015610419573d6000803e3d6000fd5b50837f8c4905f8a17a430223b23d54ea01f7ebb8c6cc6417d7eae96dfa0010949f0fa0838360405161044c929190610e96565b60405180910390a250505050565b600080600084815260200190815260200160002090508060050160003373ffffffffffffffffffffffffffffffffffffffff1673ffffffffffffffffffffffffffffffffffffffff16815260200190815260200160002060009054906101000a900460ff166104fe576040517f08c379a00000000000000000000000000000000000000000000000000000000081526004016104f590610f0b565b60405180910390fd5b8060060160003373ffffffffffffffffffffffffffffffffffffffff1673ffffffffffffffffffffffffffffffffffffffff16815260200190815260200160002060009054906101000a900460ff161561058d576040517f08c379a000000000000000000000000000000000000000000000000000000000815260040161058490610f77565b60405180910390fd5b60018160060160003373ffffffffffffffffffffffffffffffffffffffff1673ffffffffffffffffffffffffffffffffffffffff16815260200190815260200160002060006101000a81548160ff02191690831515021790555081156106085780600401600081548092919061060290610c83565b91905055505b827ff2913dbe661ee2acc4a046d8fbcdc792373bda34c41c6086484b5345e5785e5f338460405161063a929190610fa6565b60405180910390a2505050565b60015481565b600080fd5b600080fd5b600080fd5b600080fd5b600080fd5b60008083601f84011261067c5761067b610657565b5b8235905067ffffffffffffffff8111156106995761069861065c565b5b6020830191508360018202830111156106b5576106b4610661565b5b9250929050565b600080600080604085870312156106d6576106d561064d565b5b600085013567ffffffffffffffff8111156106f4576106f3610652565b5b61070087828801610666565b9450945050602085013567ffffffffffffffff81111561072357610722610652565b5b61072f87828801610666565b925092505092959194509250565b6000819050919050565b6107508161073d565b811461075b57600080fd5b50565b60008135905061076d81610747565b92915050565b6000602082840312156107895761078861064d565b5b60006107978482850161075e565b91505092915050565b60008115159050919050565b6107b5816107a0565b81146107c057600080fd5b50565b6000813590506107d2816107ac565b92915050565b600080604083850312156107ef576107ee61064d565b5b60006107fd8582860161075e565b925050602061080e858286016107c3565b9150509250929050565b6108218161073d565b82525050565b600060208201905061083c6000830184610818565b92915050565b600082825260208201905092915050565b7f4d7573742066756e64207363686f6c61727368697020706f6f6c000000000000600082015250565b6000610889601a83610842565b915061089482610853565b602082019050919050565b600060208201905081810360008301526108b88161087c565b9050919050565b600082905092915050565b7f4e487b7100000000000000000000000000000000000000000000000000000000600052604160045260246000fd5b7f4e487b7100000000000000000000000000000000000000000000000000000000600052602260045260246000fd5b6000600282049050600182168061094057607f821691505b602082108103610953576109526108f9565b5b50919050565b60008190508160005260206000209050919050565b60006020601f8301049050919050565b600082821b905092915050565b6000600883026109bb7fffffffffffffffffffffffffffffffffffffffffffffffffffffffffffffffff8261097e565b6109c5868361097e565b95508019841693508086168417925050509392505050565b6000819050919050565b6000610a026109fd6109f88461073d565b6109dd565b61073d565b9050919050565b6000819050919050565b610a1c836109e7565b610a30610a2882610a09565b84845461098b565b825550505050565b600090565b610a45610a38565b610a50818484610a13565b505050565b5b81811015610a7457610a69600082610a3d565b600181019050610a56565b5050565b601f821115610ab957610a8a81610959565b610a938461096e565b81016020851015610aa2578190505b610ab6610aae8561096e565b830182610a55565b50505b505050565b600082821c905092915050565b6000610adc60001984600802610abe565b1980831691505092915050565b6000610af58383610acb565b9150826002028217905092915050565b610b0f83836108bf565b67ffffffffffffffff811115610b2857610b276108ca565b5b610b328254610928565b610b3d828285610a78565b6000601f831160018114610b6c5760008415610b5a578287013590505b610b648582610ae9565b865550610bcc565b601f198416610b7a86610959565b60005b82811015610ba257848901358255600182019150602085019450602081019050610b7d565b86831015610bbf5784890135610bbb601f891682610acb565b8355505b6001600288020188555050505b50505050505050565b82818337600083830152505050565b6000601f19601f8301169050919050565b6000610c018385610842565b9350610c0e838584610bd5565b610c1783610be4565b840190509392505050565b60006040820190508181036000830152610c3d818587610bf5565b9050610c4c6020830184610818565b949350505050565b7f4e487b7100000000000000000000000000000000000000000000000000000000600052601160045260246000fd5b6000610c8e8261073d565b91507fffffffffffffffffffffffffffffffffffffffffffffffffffffffffffffffff8203610cc057610cbf610c54565b5b600182019050919050565b7f416c7265616479206170706c6965640000000000000000000000000000000000600082015250565b6000610d01600f83610842565b9150610d0c82610ccb565b602082019050919050565b60006020820190508181036000830152610d3081610cf4565b9050919050565b600073ffffffffffffffffffffffffffffffffffffffff82169050919050565b6000610d6282610d37565b9050919050565b610d7281610d57565b82525050565b6000602082019050610d8d6000830184610d69565b92915050565b6000610d9e8261073d565b9150610da98361073d565b9250828202610db78161073d565b91508282048414831517610dce57610dcd610c54565b5b5092915050565b7f4e6f7420656e6f75676820737570706f72740000000000000000000000000000600082015250565b6000610e0b601283610842565b9150610e1682610dd5565b602082019050919050565b60006020820190508181036000830152610e3a81610dfe565b9050919050565b6000610e5c610e57610e5284610d37565b6109dd565b610d37565b9050919050565b6000610e6e82610e41565b9050919050565b6000610e8082610e63565b9050919050565b610e9081610e75565b82525050565b6000604082019050610eab6000830185610e87565b610eb86020830184610818565b9392505050565b7f4d757374206170706c7920666972737400000000000000000000000000000000600082015250565b6000610ef5601083610842565b9150610f0082610ebf565b602082019050919050565b60006020820190508181036000830152610f2481610ee8565b9050919050565b7f416c726561647920766f74656400000000000000000000000000000000000000600082015250565b6000610f61600d83610842565b9150610f6c82610f2b565b602082019050919050565b60006020820190508181036000830152610f9081610f54565b9050919050565b610fa0816107a0565b82525050565b6000604082019050610fbb6000830185610d69565b610fc86020830184610f97565b939250505056fea2646970667358221220287b5b88a2bf5443291177de02d97d2bece60a756da231873b596640c89776ea64736f6c634300081c0033",
  "linkReferences": {},
  "deployedLinkReferences": {}
}