{
  "_format": "hh-sol-artifact-1",
  "contractName": "ScholarshipPool",
  "sourceName": "contracts/ScholarshipPool.sol",
  "abi": [
    {
      "inputs": [],
      "stateMutability": "payable",
      "type": "constructor"
    },
    {
      "anonymous": false,
      "inputs": [
        {
          "indexed": true,
          "internalType": "uint256",
          "name": "poolId",
          "type": "uint256"
        },
        {
          "indexed": false,
          "internalType": "address",
          "name": "applicant",
          "type": "address"
        }
      ],
      "name": "Applied",
      "type": "event"
    },
    {
      "anonymous": false,
      "inputs": [
        {
          "indexed": true,
          "internalType": "uint256",
          "name": "poolId",
          "type": "uint256"
        },
        {
          "indexed": false,
          "internalType": "address",
          "name": "recipient",
          "type": "address"
        },
        {
          "indexed": false,
          "internalType": "uint256",
          "name": "amount",
          "type": "uint256"
        }
      ],
      "name": "Disbursed",
      "type": "event"
    },
    {
      "anonymous": false,
      "inputs": [
        {
          "indexed": true,
          "internalType": "uint256",
          "name": "poolId",
          "type": "uint256"
        },
        {
          "indexed": false,
          "internalType": "string",
          "name": "name",
          "type": "string"
        },
        {
          "indexed": false,
          "internalType": "uint256",
          "name": "totalAmount",
          "type": "uint256"
        }
      ],
      "name": "PoolCreated",
      "type": "event"
    },
    {
      "anonymous": false,
      "inputs": [
        {
          "indexed": true,
          "internalType": "uint256",
          "name": "poolId",
          "type": "uint256"
        },
        {
          "indexed": false,
          "internalType": "string",
          "name": "cid",
          "type": "string"
        }
      ],
      "name": "RecordAdded",
      "type": "event"
    },
    {
      "anonymous": false,
      "inputs": [
        {
          "indexed": true,
          "internalType": "uint256",
          "name": "poolId",
          "type": "uint256"
        },
        {
          "indexed": false,
          "internalType": "address",
          "name": "voter",
          "type": "address"
        },
        {
          "indexed": false,
          "internalType": "bool",
          "name": "support",
          "type": "bool"
        }
      ],
      "name": "Voted",
      "type": "event"
    },
    {
      "inputs": [
        {
          "internalType": "uint256",
          "name": "poolId",
          "type": "uint256"
        },
        {
          "internalType": "string",
          "name": "cid",
          "type": "string"
        }
      ],
      "name": "addRecord",
      "outputs": [],
      "stateMutability": "nonpayable",
      "type": "function"
    },
    {
      "inputs": [
        {
          "internalType": "uint256",
          "name": "poolId",
          "type": "uint256"
        }
      ],
      "name": "applyForScholarship",
      "outputs": [],
      "stateMutability": "nonpayable",
      "type": "function"
    },
    {
      "inputs": [
        {
          "internalType": "string",
          "name": "name",
          "type": "string"
        },
        {
          "internalType": "string",
          "name": "desc",
          "type": "string"
        }
      ],
      "name": "createPool",
      "outputs": [],
      "stateMutability": "payable",
      "type": "function"
    },
    {
      "inputs": [
        {
          "internalType": "uint256",
          "name": "poolId",
          "type": "uint256"
        }
      ],
      "name": "disburse",
      "outputs": [],
      "stateMutability": "nonpayable",
      "type": "function"
    },
    {
      "inputs": [],
      "name": "poolCount",
      "outputs": [
        {
          "internalType": "uint256",
          "name": "",
          "type": "uint256"
        }
      ],
      "stateMutability": "view",
      "type": "function"
    },
    {
      "inputs": [
        {
          "internalType": "uint256",
          "name": "",
          "type": "uint256"
        },
        {
          "internalType": "uint256",
          "name": "",
          "type": "uint256"
        }
      ],
      "name": "records",
      "outputs": [
        {
          "internalType": "string",
          "name": "",
          "type": "string"
        }
      ],
      "stateMutability": "view",
      "type": "function"
    },
    {
      "inputs": [
        {
          "internalType": "uint256",
          "name": "poolId",
          "type": "uint256"
        },
        {
          "internalType": "bool",
          "name": "support",
          "type": "bool"
        }
      ],
      "name": "vote",
      "outputs": [],
      "stateMutability": "nonpayable",
      "type": "function"
    }
  ],
  "bytecode": "0x608060405260003411610047576040517f08c379a000000000000000000000000000000000000000000000000000000000815260040161003e9061015e565b60405180910390fd5b6000806000600154815260200190815260200160002090506040518060200160405280600081525081600001908161007f91906103ce565b50604051806020016040528060008152508160010190816100a091906103ce565b50348160020181905550600160008154809291906100bd906104cf565b919050555060007f3040bbc5c012df6c85e9f1cc10202ceda09051bc16d18aa369bf9ada2ba7716f346040516100f3919061054c565b60405180910390a25061057a565b600082825260208201905092915050565b7f4d7573742066756e64207363686f6c61727368697020706f6f6c000000000000600082015250565b6000610148601a83610101565b915061015382610112565b602082019050919050565b600060208201905081810360008301526101778161013b565b9050919050565b600081519050919050565b7f4e487b7100000000000000000000000000000000000000000000000000000000600052604160045260246000fd5b7f4e487b7100000000000000000000000000000000000000000000000000000000600052602260045260246000fd5b600060028204905060018216806101ff57607f821691505b602082108103610212576102116101b8565b5b50919050565b60008190508160005260206000209050919050565b60006020601f8301049050919050565b600082821b905092915050565b60006008830261027a7fffffffffffffffffffffffffffffffffffffffffffffffffffffffffffffffff8261023d565b610284868361023d565b95508019841693508086168417925050509392505050565b6000819050919050565b6000819050919050565b60006102cb6102c66102c18461029c565b6102a6565b61029c565b9050919050565b6000819050919050565b6102e5836102b0565b6102f96102f1826102d2565b84845461024a565b825550505050565b600090565b61030e610301565b6103198184846102dc565b505050565b5b8181101561033d57610332600082610306565b60018101905061031f565b5050565b601f8211156103825761035381610218565b61035c8461022d565b8101602085101561036b578190505b61037f6103778561022d565b83018261031e565b50505b505050565b600082821c905092915050565b60006103a560001984600802610387565b1980831691505092915050565b60006103be8383610394565b9150826002028217905092915050565b6103d78261017e565b67ffffffffffffffff8111156103f0576103ef610189565b5b6103fa82546101e7565b610405828285610341565b600060209050601f8311600181146104385760008415610426578287015190505b61043085826103b2565b865550610498565b601f19841661044686610218565b60005b8281101561046e57848901518255600182019150602085019450602081019050610449565b8683101561048b5784890151610487601f891682610394565b8355505b6001600288020188555050505b505050505050565b7f4e487b7100000000000000000000000000000000000000000000000000000000600052601160045260246000fd5b60006104da8261029c565b91507fffffffffffffffffffffffffffffffffffffffffffffffffffffffffffffffff820361050c5761050b6104a0565b5b600182019050919050565b50565b6000610527600083610101565b915061053282610517565b600082019050919050565b6105468161029c565b82525050565b600060408201905081810360008301526105658161051a565b9050610574602083018461053d565b92915050565b61132c806105896000396000f3fe6080604052600436106100705760003560e01c80639cc8525d1161004e5780639cc8525d146100e3578063bd77ac2c14610120578063c9d27afe14610149578063f525cb681461017257610070565b80634131d0e3146100755780635ea81a321461009e578063910451fa146100ba575b600080fd5b34801561008157600080fd5b5061009c600480360381019061009791906108c5565b61019d565b005b6100b860048036038101906100b39190610925565b61022b565b005b3480156100c657600080fd5b506100e160048036038101906100dc91906109a6565b610314565b005b3480156100ef57600080fd5b5061010a600480360381019061010591906109d3565b610469565b6040516101179190610aa3565b60405180910390f35b34801561012c57600080fd5b50610147600480360381019061014291906109a6565b610522565b005b34801561015557600080fd5b50610170600480360381019061016b9190610afd565b61062d565b005b34801561017e57600080fd5b5061018761081a565b6040516101949190610b4c565b60405180910390f35b600260008481526020019081526020016000208282909180600181540180825580915050600190039060005260206000200160009091929091929091929091925091826101eb929190610dad565b50827fc27ea2523693cc75e5b7f14a03cdd9496145ca13c087afe6dcd707770af065f4838360405161021e929190610eb9565b60405180910390a2505050565b6000341161026e576040517f08c379a000000000000000000000000000000000000000000000000000000000815260040161026590610f29565b60405180910390fd5b6000806000600154815260200190815260200160002090508484826000019182610299929190610dad565b5082828260010191826102ad929190610dad565b503481600201819055506001547f3040bbc5c012df6c85e9f1cc10202ceda09051bc16d18aa369bf9ada2ba7716f8686346040516102ed93929190610f49565b60405180910390a26001600081548092919061030890610faa565b91905055505050505050565b600080600083815260200190815260200160002090508060050160003373ffffffffffffffffffffffffffffffffffffffff1673ffffffffffffffffffffffffffffffffffffffff16815260200190815260200160002060009054906101000a900460ff16156103b9576040517f08c379a00000000000000000000000000000000000000000000000000000000081526004016103b09061103e565b60405180910390fd5b60018160050160003373ffffffffffffffffffffffffffffffffffffffff1673ffffffffffffffffffffffffffffffffffffffff16815260200190815260200160002060006101000a81548160ff02191690831515021790555080600301600081548092919061042890610faa565b9190505550817f8e536842b0bedb99bbe3d9b2f4d7cd3c1d89955698940f266371b4d4f5caa2573360405161045d919061109f565b60405180910390a25050565b6002602052816000526040600020818154811061048557600080fd5b906000526020600020016000915091505080546104a190610bd0565b80601f01602080910402602001604051908101604052809291908181526020018280546104cd90610bd0565b801561051a5780601f106104ef5761010080835404028352916020019161051a565b820191906000526020600020905b8154815290600101906020018083116104fd57829003601f168201915b505050505081565b6000806000838152602001908152602001600020905080600301546002826004015461054e91906110ba565b1161058e576040517f08c379a000000000000000000000000000000000000000000000000000000000815260040161058590611148565b60405180910390fd5b6000816002015490506000826002018190555060003390508073ffffffffffffffffffffffffffffffffffffffff166108fc839081150290604051600060405180830381858888f193505050501580156105ec573d6000803e3d6000fd5b50837f8c4905f8a17a430223b23d54ea01f7ebb8c6cc6417d7eae96dfa0010949f0fa0828460405161061f9291906111bd565b60405180910390a250505050565b600080600084815260200190815260200160002090508060050160003373ffffffffffffffffffffffffffffffffffffffff1673ffffffffffffffffffffffffffffffffffffffff16815260200190815260200160002060009054906101000a900460ff166106d1576040517f08c379a00000000000000000000000000000000000000000000000000000000081526004016106c890611232565b60405180910390fd5b8060060160003373ffffffffffffffffffffffffffffffffffffffff1673ffffffffffffffffffffffffffffffffffffffff16815260200190815260200160002060009054906101000a900460ff1615610760576040517f08c379a00000000000000000000000000000000000000000000000000000000081526004016107579061129e565b60405180910390fd5b60018160060160003373ffffffffffffffffffffffffffffffffffffffff1673ffffffffffffffffffffffffffffffffffffffff16815260200190815260200160002060006101000a81548160ff02191690831515021790555081156107db578060040160008154809291906107d590610faa565b91905055505b827ff2913dbe661ee2acc4a046d8fbcdc792373bda34c41c6086484b5345e5785e5f338460405161080d9291906112cd565b60405180910390a2505050565b60015481565b600080fd5b600080fd5b6000819050919050565b61083d8161082a565b811461084857600080fd5b50565b60008135905061085a81610834565b92915050565b600080fd5b600080fd5b600080fd5b60008083601f84011261088557610884610860565b5b8235905067ffffffffffffffff8111156108a2576108a1610865565b5b6020830191508360018202830111156108be576108bd61086a565b5b9250929050565b6000806000604084860312156108de576108dd610820565b5b60006108ec8682870161084b565b935050602084013567ffffffffffffffff81111561090d5761090c610825565b5b6109198682870161086f565b92509250509250925092565b6000806000806040858703121561093f5761093e610820565b5b600085013567ffffffffffffffff81111561095d5761095c610825565b5b6109698782880161086f565b9450945050602085013567ffffffffffffffff81111561098c5761098b610825565b5b6109988782880161086f565b925092505092959194509250565b6000602082840312156109bc576109bb610820565b5b60006109ca8482850161084b565b91505092915050565b600080604083850312156109ea576109e9610820565b5b60006109f88582860161084b565b9250506020610a098582860161084b565b9150509250929050565b600081519050919050565b600082825260208201905092915050565b60005b83811015610a4d578082015181840152602081019050610a32565b60008484015250505050565b6000601f19601f8301169050919050565b6000610a7582610a13565b610a7f8185610a1e565b9350610a8f818560208601610a2f565b610a9881610a59565b840191505092915050565b60006020820190508181036000830152610abd8184610a6a565b905092915050565b60008115159050919050565b610ada81610ac5565b8114610ae557600080fd5b50565b600081359050610af781610ad1565b92915050565b60008060408385031215610b1457610b13610820565b5b6000610b228582860161084b565b9250506020610b3385828601610ae8565b9150509250929050565b610b468161082a565b82525050565b6000602082019050610b616000830184610b3d565b92915050565b600082905092915050565b7f4e487b7100000000000000000000000000000000000000000000000000000000600052604160045260246000fd5b7f4e487b7100000000000000000000000000000000000000000000000000000000600052602260045260246000fd5b60006002820490506001821680610be857607f821691505b602082108103610bfb57610bfa610ba1565b5b50919050565b60008190508160005260206000209050919050565b60006020601f8301049050919050565b600082821b905092915050565b600060088302610c637fffffffffffffffffffffffffffffffffffffffffffffffffffffffffffffffff82610c26565b610c6d8683610c26565b95508019841693508086168417925050509392505050565b6000819050919050565b6000610caa610ca5610ca08461082a565b610c85565b61082a565b9050919050565b6000819050919050565b610cc483610c8f565b610cd8610cd082610cb1565b848454610c33565b825550505050565b600090565b610ced610ce0565b610cf8818484610cbb565b505050565b5b81811015610d1c57610d11600082610ce5565b600181019050610cfe565b5050565b601f821115610d6157610d3281610c01565b610d3b84610c16565b81016020851015610d4a578190505b610d5e610d5685610c16565b830182610cfd565b50505b505050565b600082821c905092915050565b6000610d8460001984600802610d66565b1980831691505092915050565b6000610d9d8383610d73565b9150826002028217905092915050565b610db78383610b67565b67ffffffffffffffff811115610dd057610dcf610b72565b5b610dda8254610bd0565b610de5828285610d20565b6000601f831160018114610e145760008415610e02578287013590505b610e0c8582610d91565b865550610e74565b601f198416610e2286610c01565b60005b82811015610e4a57848901358255600182019150602085019450602081019050610e25565b86831015610e675784890135610e63601f891682610d73565b8355505b6001600288020188555050505b50505050505050565b82818337600083830152505050565b6000610e988385610a1e565b9350610ea5838584610e7d565b610eae83610a59565b840190509392505050565b60006020820190508181036000830152610ed4818486610e8c565b90509392505050565b7f4d7573742066756e64207363686f6c61727368697020706f6f6c000000000000600082015250565b6000610f13601a83610a1e565b9150610f1e82610edd565b602082019050919050565b60006020820190508181036000830152610f4281610f06565b9050919050565b60006040820190508181036000830152610f64818587610e8c565b9050610f736020830184610b3d565b949350505050565b7f4e487b7100000000000000000000000000000000000000000000000000000000600052601160045260246000fd5b6000610fb58261082a565b91507fffffffffffffffffffffffffffffffffffffffffffffffffffffffffffffffff8203610fe757610fe6610f7b565b5b600182019050919050565b7f416c7265616479206170706c6965640000000000000000000000000000000000600082015250565b6000611028600f83610a1e565b915061103382610ff2565b602082019050919050565b600060208201905081810360008301526110578161101b565b9050919050565b600073ffffffffffffffffffffffffffffffffffffffff82169050919050565b60006110898261105e565b9050919050565b6110998161107e565b82525050565b60006020820190506110b46000830184611090565b92915050565b60006110c58261082a565b91506110d08361082a565b92508282026110de8161082a565b915082820484148315176110f5576110f4610f7b565b5b5092915050565b7f4e6f7420656e6f75676820737570706f72740000000000000000000000000000600082015250565b6000611132601283610a1e565b915061113d826110fc565b602082019050919050565b6000602082019050818103600083015261116181611125565b9050919050565b600061118361117e6111798461105e565b610c85565b61105e565b9050919050565b600061119582611168565b9050919050565b60006111a78261118a565b9050919050565b6111b78161119c565b82525050565b60006040820190506111d260008301856111ae565b6111df6020830184610b3d565b9392505050565b7f4d757374206170706c7920666972737400000000000000000000000000000000600082015250565b600061121c601083610a1e565b9150611227826111e6565b602082019050919050565b6000602082019050818103600083015261124b8161120f565b9050919050565b7f416c726561647920766f74656400000000000000000000000000000000000000600082015250565b6000611288600d83610a1e565b915061129382611252565b602082019050919050565b600060208201905081810360008301526112b78161127b565b9050919050565b6112c781610ac5565b82525050565b60006040820190506112e26000830185611090565b6112ef60208301846112be565b939250505056fea2646970667358221220f4ff5df0a09afb0decc317d39b82b0c00c6841b9eca0e511b3efd4af2b88718a64736f6c634300081c0033",
  "linkReferences": {},
  "deployedLinkReferences": {}
}